{
  "_format": "hh-sol-artifact-1",
  "contractName": "Assessment",
  "sourceName": "contracts/Assessment.sol",
  "abi": [
    {
      "inputs": [
        {
          "internalType": "uint256",
          "name": "initBalance",
          "type": "uint256"
        }
      ],
      "stateMutability": "payable",
      "type": "constructor"
    },
    {
      "inputs": [
        {
          "internalType": "uint256",
          "name": "balance",
          "type": "uint256"
        },
        {
          "internalType": "uint256",
          "name": "withdrawAmount",
          "type": "uint256"
        }
      ],
      "name": "InsufficientBalance",
      "type": "error"
    },
    {
      "anonymous": false,
      "inputs": [
        {
          "indexed": false,
          "internalType": "uint256",
          "name": "amount",
          "type": "uint256"
        }
      ],
      "name": "Burn",
      "type": "event"
    },
    {
      "anonymous": false,
      "inputs": [
        {
          "indexed": false,
          "internalType": "uint256",
          "name": "amount",
          "type": "uint256"
        }
      ],
      "name": "Deposit",
      "type": "event"
    },
    {
      "anonymous": false,
      "inputs": [
        {
          "indexed": false,
          "internalType": "uint256",
          "name": "amount",
          "type": "uint256"
        }
      ],
      "name": "Stake",
      "type": "event"
    },
    {
      "anonymous": false,
      "inputs": [
        {
          "indexed": false,
          "internalType": "uint256",
          "name": "amount",
          "type": "uint256"
        }
      ],
      "name": "Withdraw",
      "type": "event"
    },
    {
      "inputs": [],
      "name": "balance",
      "outputs": [
        {
          "internalType": "uint256",
          "name": "",
          "type": "uint256"
        }
      ],
      "stateMutability": "view",
      "type": "function"
    },
    {
      "inputs": [
        {
          "internalType": "uint256",
          "name": "_amount",
          "type": "uint256"
        }
      ],
      "name": "burn",
      "outputs": [],
      "stateMutability": "nonpayable",
      "type": "function"
    },
    {
      "inputs": [
        {
          "internalType": "uint256",
          "name": "_amount",
          "type": "uint256"
        }
      ],
      "name": "deposit",
      "outputs": [],
      "stateMutability": "payable",
      "type": "function"
    },
    {
      "inputs": [],
      "name": "getBalance",
      "outputs": [
        {
          "internalType": "uint256",
          "name": "",
          "type": "uint256"
        }
      ],
      "stateMutability": "view",
      "type": "function"
    },
    {
      "inputs": [],
      "name": "owner",
      "outputs": [
        {
          "internalType": "address payable",
          "name": "",
          "type": "address"
        }
      ],
      "stateMutability": "view",
      "type": "function"
    },
    {
      "inputs": [
        {
          "internalType": "uint256",
          "name": "_amount",
          "type": "uint256"
        }
      ],
      "name": "stake",
      "outputs": [],
      "stateMutability": "nonpayable",
      "type": "function"
    },
    {
      "inputs": [
        {
          "internalType": "uint256",
          "name": "_withdrawAmount",
          "type": "uint256"
        }
      ],
      "name": "withdraw",
      "outputs": [],
      "stateMutability": "nonpayable",
      "type": "function"
    }
  ],
  "bytecode": "0x6080604052604051610a59380380610a59833981810160405281019061002591906100ad565b336000806101000a81548173ffffffffffffffffffffffffffffffffffffffff021916908373ffffffffffffffffffffffffffffffffffffffff16021790555080600181905550506100da565b600080fd5b6000819050919050565b61008a81610077565b811461009557600080fd5b50565b6000815190506100a781610081565b92915050565b6000602082840312156100c3576100c2610072565b5b60006100d184828501610098565b91505092915050565b610970806100e96000396000f3fe6080604052600436106100705760003560e01c80638da5cb5b1161004e5780638da5cb5b146100f2578063a694fc3a1461011d578063b69ef8a814610146578063b6b55f251461017157610070565b806312065fe0146100755780632e1a7d4d146100a057806342966c68146100c9575b600080fd5b34801561008157600080fd5b5061008a61018d565b60405161009791906106d3565b60405180910390f35b3480156100ac57600080fd5b506100c760048036038101906100c2919061071f565b610197565b005b3480156100d557600080fd5b506100f060048036038101906100eb919061071f565b6102e8565b005b3480156100fe57600080fd5b50610107610439565b604051610114919061078d565b60405180910390f35b34801561012957600080fd5b50610144600480360381019061013f919061071f565b61045d565b005b34801561015257600080fd5b5061015b6105ae565b60405161016891906106d3565b60405180910390f35b61018b6004803603810190610186919061071f565b6105b4565b005b6000600154905090565b60008054906101000a900473ffffffffffffffffffffffffffffffffffffffff1673ffffffffffffffffffffffffffffffffffffffff163373ffffffffffffffffffffffffffffffffffffffff1614610225576040517f08c379a000000000000000000000000000000000000000000000000000000000815260040161021c9061082b565b60405180910390fd5b6000600154905081600154101561027757600154826040517fcf47918100000000000000000000000000000000000000000000000000000000815260040161026e92919061084b565b60405180910390fd5b816001600082825461028991906108a3565b92505081905550818161029c91906108a3565b600154146102ad576102ac6108d7565b5b7f5b6b431d4476a211bb7d41c20d1aab9ae2321deee0d20be3d9fc9b1093fa6e3d826040516102dc91906106d3565b60405180910390a15050565b60008054906101000a900473ffffffffffffffffffffffffffffffffffffffff1673ffffffffffffffffffffffffffffffffffffffff163373ffffffffffffffffffffffffffffffffffffffff1614610376576040517f08c379a000000000000000000000000000000000000000000000000000000000815260040161036d9061082b565b60405180910390fd5b600060015490508160015410156103c857600154826040517fcf4791810000000000000000000000000000000000000000000000000000000081526004016103bf92919061084b565b60405180910390fd5b81600160008282546103da91906108a3565b9250508190555081816103ed91906108a3565b600154146103fe576103fd6108d7565b5b7fb90306ad06b2a6ff86ddc9327db583062895ef6540e62dc50add009db5b356eb8260405161042d91906106d3565b60405180910390a15050565b60008054906101000a900473ffffffffffffffffffffffffffffffffffffffff1681565b60008054906101000a900473ffffffffffffffffffffffffffffffffffffffff1673ffffffffffffffffffffffffffffffffffffffff163373ffffffffffffffffffffffffffffffffffffffff16146104eb576040517f08c379a00000000000000000000000000000000000000000000000000000000081526004016104e29061082b565b60405180910390fd5b6000600154905081600154101561053d57600154826040517fcf47918100000000000000000000000000000000000000000000000000000000815260040161053492919061084b565b60405180910390fd5b816001600082825461054f91906108a3565b92505081905550818161056291906108a3565b60015414610573576105726108d7565b5b7f227a473b70d2f893cc7659219575c030a63b5743024fe1e0c1a680e708b1525a826040516105a291906106d3565b60405180910390a15050565b60015481565b6000600154905060008054906101000a900473ffffffffffffffffffffffffffffffffffffffff1673ffffffffffffffffffffffffffffffffffffffff163373ffffffffffffffffffffffffffffffffffffffff1614610649576040517f08c379a00000000000000000000000000000000000000000000000000000000081526004016106409061082b565b60405180910390fd5b816001600082825461065b9190610906565b92505081905550818161066e9190610906565b6001541461067f5761067e6108d7565b5b7f4d6ce1e535dbade1c23defba91e23b8f791ce5edc0cc320257a2b364e4e38426826040516106ae91906106d3565b60405180910390a15050565b6000819050919050565b6106cd816106ba565b82525050565b60006020820190506106e860008301846106c4565b92915050565b600080fd5b6106fc816106ba565b811461070757600080fd5b50565b600081359050610719816106f3565b92915050565b600060208284031215610735576107346106ee565b5b60006107438482850161070a565b91505092915050565b600073ffffffffffffffffffffffffffffffffffffffff82169050919050565b60006107778261074c565b9050919050565b6107878161076c565b82525050565b60006020820190506107a2600083018461077e565b92915050565b600082825260208201905092915050565b7f596f7520617265206e6f7420746865206f776e6572206f66207468697320616360008201527f636f756e74000000000000000000000000000000000000000000000000000000602082015250565b60006108156025836107a8565b9150610820826107b9565b604082019050919050565b6000602082019050818103600083015261084481610808565b9050919050565b600060408201905061086060008301856106c4565b61086d60208301846106c4565b9392505050565b7f4e487b7100000000000000000000000000000000000000000000000000000000600052601160045260246000fd5b60006108ae826106ba565b91506108b9836106ba565b92508282039050818111156108d1576108d0610874565b5b92915050565b7f4e487b7100000000000000000000000000000000000000000000000000000000600052600160045260246000fd5b6000610911826106ba565b915061091c836106ba565b925082820190508082111561093457610933610874565b5b9291505056fea2646970667358221220cbb74b119d0537310bbb320f9b9098195d3cf858af390443caa6820eabebee6364736f6c63430008110033",
  "linkReferences": {},
  "deployedLinkReferences": {}
}